{
  "_format": "hh-sol-artifact-1",
  "contractName": "HiFiChain",
  "sourceName": "contracts/HiFiChain.sol",
  "abi": [
    {
      "anonymous": false,
      "inputs": [
        {
          "indexed": true,
          "internalType": "string",
          "name": "serialNumber",
          "type": "string"
        },
        {
          "indexed": false,
          "internalType": "string",
          "name": "model",
          "type": "string"
        },
        {
          "indexed": true,
          "internalType": "address",
          "name": "owner",
          "type": "address"
        }
      ],
      "name": "AssetRegistered",
      "type": "event"
    },
    {
      "anonymous": false,
      "inputs": [
        {
          "indexed": false,
          "internalType": "uint256",
          "name": "newRate",
          "type": "uint256"
        }
      ],
      "name": "RateUpdated",
      "type": "event"
    },
    {
      "inputs": [
        {
          "internalType": "string",
          "name": "",
          "type": "string"
        }
      ],
      "name": "assets",
      "outputs": [
        {
          "internalType": "string",
          "name": "modelName",
          "type": "string"
        },
        {
          "internalType": "string",
          "name": "serialNumber",
          "type": "string"
        },
        {
          "internalType": "uint256",
          "name": "manufacturedDate",
          "type": "uint256"
        },
        {
          "internalType": "uint256",
          "name": "currentValueUSD",
          "type": "uint256"
        },
        {
          "internalType": "address",
          "name": "currentOwner",
          "type": "address"
        },
        {
          "internalType": "bool",
          "name": "exists",
          "type": "bool"
        }
      ],
      "stateMutability": "view",
      "type": "function"
    },
    {
      "inputs": [],
      "name": "exchangeRate",
      "outputs": [
        {
          "internalType": "uint256",
          "name": "",
          "type": "uint256"
        }
      ],
      "stateMutability": "view",
      "type": "function"
    },
    {
      "inputs": [
        {
          "internalType": "string",
          "name": "_model",
          "type": "string"
        },
        {
          "internalType": "string",
          "name": "_serial",
          "type": "string"
        },
        {
          "internalType": "uint256",
          "name": "_price",
          "type": "uint256"
        }
      ],
      "name": "registerAsset",
      "outputs": [],
      "stateMutability": "nonpayable",
      "type": "function"
    },
    {
      "inputs": [
        {
          "internalType": "uint256",
          "name": "_rate",
          "type": "uint256"
        }
      ],
      "name": "updateExchangeRate",
      "outputs": [],
      "stateMutability": "nonpayable",
      "type": "function"
    },
    {
      "inputs": [
        {
          "internalType": "string",
          "name": "_serial",
          "type": "string"
        }
      ],
      "name": "verifyAsset",
      "outputs": [
        {
          "internalType": "bool",
          "name": "",
          "type": "bool"
        },
        {
          "internalType": "string",
          "name": "",
          "type": "string"
        },
        {
          "internalType": "address",
          "name": "",
          "type": "address"
        }
      ],
      "stateMutability": "view",
      "type": "function"
    }
  ],
  "bytecode": "0x6080604052348015600f57600080fd5b50610e648061001f6000396000f3fe608060405234801561001057600080fd5b50600436106100575760003560e01c80633ba0b9a91461005c578063463c7d6f1461007a5780634e58c9771461009657806385936228146100c8578063b9e205ae146100fd575b600080fd5b610064610119565b6040516100719190610645565b60405180910390f35b610094600480360381019061008f91906107e6565b61011f565b005b6100b060048036038101906100ab9190610871565b610305565b6040516100bf93929190610995565b60405180910390f35b6100e260048036038101906100dd9190610871565b61045c565b6040516100f4969594939291906109d3565b60405180910390f35b61011760048036038101906101129190610a42565b6105eb565b005b60015481565b60008260405161012f9190610aab565b908152602001604051809103902060040160149054906101000a900460ff161561018e576040517f08c379a000000000000000000000000000000000000000000000000000000000815260040161018590610b0e565b60405180910390fd5b6040518060c001604052808481526020018381526020014281526020018281526020013373ffffffffffffffffffffffffffffffffffffffff168152602001600115158152506000836040516101e49190610aab565b908152602001604051809103902060008201518160000190816102079190610d3a565b50602082015181600101908161021d9190610d3a565b50604082015181600201556060820151816003015560808201518160040160006101000a81548173ffffffffffffffffffffffffffffffffffffffff021916908373ffffffffffffffffffffffffffffffffffffffff16021790555060a08201518160040160146101000a81548160ff0219169083151502179055509050503373ffffffffffffffffffffffffffffffffffffffff16826040516102c19190610aab565b60405180910390207fa80b61829ced791d8911bbc0e07a059c1fc5c3642d169260d1d7194f3792b281856040516102f89190610e0c565b60405180910390a3505050565b600060606000808460405161031a9190610aab565b908152602001604051809103902060040160149054906101000a900460ff161561043a5760016000856040516103509190610aab565b90815260200160405180910390206000016000866040516103719190610aab565b908152602001604051809103902060040160009054906101000a900473ffffffffffffffffffffffffffffffffffffffff168180546103af90610b5d565b80601f01602080910402602001604051908101604052809291908181526020018280546103db90610b5d565b80156104285780601f106103fd57610100808354040283529160200191610428565b820191906000526020600020905b81548152906001019060200180831161040b57829003601f168201915b50505050509150925092509250610455565b60008060405180602001604052806000815250909250925092505b9193909250565b60008180516020810182018051848252602083016020850120818352809550505050505060009150905080600001805461049590610b5d565b80601f01602080910402602001604051908101604052809291908181526020018280546104c190610b5d565b801561050e5780601f106104e35761010080835404028352916020019161050e565b820191906000526020600020905b8154815290600101906020018083116104f157829003601f168201915b50505050509080600101805461052390610b5d565b80601f016020809104026020016040519081016040528092919081815260200182805461054f90610b5d565b801561059c5780601f106105715761010080835404028352916020019161059c565b820191906000526020600020905b81548152906001019060200180831161057f57829003601f168201915b5050505050908060020154908060030154908060040160009054906101000a900473ffffffffffffffffffffffffffffffffffffffff16908060040160149054906101000a900460ff16905086565b806001819055507fe65c987b2e4668e09ba867026921588005b2b2063607a1e7e7d91683c8f91b7b816040516106219190610645565b60405180910390a150565b6000819050919050565b61063f8161062c565b82525050565b600060208201905061065a6000830184610636565b92915050565b6000604051905090565b600080fd5b600080fd5b600080fd5b600080fd5b6000601f19601f8301169050919050565b7f4e487b7100000000000000000000000000000000000000000000000000000000600052604160045260246000fd5b6106c78261067e565b810181811067ffffffffffffffff821117156106e6576106e561068f565b5b80604052505050565b60006106f9610660565b905061070582826106be565b919050565b600067ffffffffffffffff8211156107255761072461068f565b5b61072e8261067e565b9050602081019050919050565b82818337600083830152505050565b600061075d6107588461070a565b6106ef565b90508281526020810184848401111561077957610778610679565b5b61078484828561073b565b509392505050565b600082601f8301126107a1576107a0610674565b5b81356107b184826020860161074a565b91505092915050565b6107c38161062c565b81146107ce57600080fd5b50565b6000813590506107e0816107ba565b92915050565b6000806000606084860312156107ff576107fe61066a565b5b600084013567ffffffffffffffff81111561081d5761081c61066f565b5b6108298682870161078c565b935050602084013567ffffffffffffffff81111561084a5761084961066f565b5b6108568682870161078c565b9250506040610867868287016107d1565b9150509250925092565b6000602082840312156108875761088661066a565b5b600082013567ffffffffffffffff8111156108a5576108a461066f565b5b6108b18482850161078c565b91505092915050565b60008115159050919050565b6108cf816108ba565b82525050565b600081519050919050565b600082825260208201905092915050565b60005b8381101561090f5780820151818401526020810190506108f4565b60008484015250505050565b6000610926826108d5565b61093081856108e0565b93506109408185602086016108f1565b6109498161067e565b840191505092915050565b600073ffffffffffffffffffffffffffffffffffffffff82169050919050565b600061097f82610954565b9050919050565b61098f81610974565b82525050565b60006060820190506109aa60008301866108c6565b81810360208301526109bc818561091b565b90506109cb6040830184610986565b949350505050565b600060c08201905081810360008301526109ed818961091b565b90508181036020830152610a01818861091b565b9050610a106040830187610636565b610a1d6060830186610636565b610a2a6080830185610986565b610a3760a08301846108c6565b979650505050505050565b600060208284031215610a5857610a5761066a565b5b6000610a66848285016107d1565b91505092915050565b600081905092915050565b6000610a85826108d5565b610a8f8185610a6f565b9350610a9f8185602086016108f1565b80840191505092915050565b6000610ab78284610a7a565b915081905092915050565b7f4572726f723a20417373657420616c7265616479207265676973746572656400600082015250565b6000610af8601f836108e0565b9150610b0382610ac2565b602082019050919050565b60006020820190508181036000830152610b2781610aeb565b9050919050565b7f4e487b7100000000000000000000000000000000000000000000000000000000600052602260045260246000fd5b60006002820490506001821680610b7557607f821691505b602082108103610b8857610b87610b2e565b5b50919050565b60008190508160005260206000209050919050565b60006020601f8301049050919050565b600082821b905092915050565b600060088302610bf07fffffffffffffffffffffffffffffffffffffffffffffffffffffffffffffffff82610bb3565b610bfa8683610bb3565b95508019841693508086168417925050509392505050565b6000819050919050565b6000610c37610c32610c2d8461062c565b610c12565b61062c565b9050919050565b6000819050919050565b610c5183610c1c565b610c65610c5d82610c3e565b848454610bc0565b825550505050565b600090565b610c7a610c6d565b610c85818484610c48565b505050565b5b81811015610ca957610c9e600082610c72565b600181019050610c8b565b5050565b601f821115610cee57610cbf81610b8e565b610cc884610ba3565b81016020851015610cd7578190505b610ceb610ce385610ba3565b830182610c8a565b50505b505050565b600082821c905092915050565b6000610d1160001984600802610cf3565b1980831691505092915050565b6000610d2a8383610d00565b9150826002028217905092915050565b610d43826108d5565b67ffffffffffffffff811115610d5c57610d5b61068f565b5b610d668254610b5d565b610d71828285610cad565b600060209050601f831160018114610da45760008415610d92578287015190505b610d9c8582610d1e565b865550610e04565b601f198416610db286610b8e565b60005b82811015610dda57848901518255600182019150602085019450602081019050610db5565b86831015610df75784890151610df3601f891682610d00565b8355505b6001600288020188555050505b505050505050565b60006020820190508181036000830152610e26818461091b565b90509291505056fea2646970667358221220be981d6e26564a45ffde15b22c4443cfb024999a7d6e49fd468081dadf65049164736f6c634300081c0033",
  "linkReferences": {},
  "deployedLinkReferences": {}
}